:040000003EEFFBF0E4
:020000040001F9
:10F60200010060B002D0010E1200000E1200016E65
:10F6120001C05FFF608E60801200EFECFBF01FEC18
:10F62200FBF063ECFBF012006450046E036A63505B
:10F632000324016E000E0420026E1200700E0E01F1
:10F64200D86F000EDA6F000EDC6F020EDE6F000E56
:10F65200DD6F120001500302F3CF05F0F4CF06F084
:10F6620001500402F350062602500302F35006260C
:10F6720005C001F006C002F01200760EF66EF80E1A
:10F68200F76E010EF86E00EE60F010EE9CF00900CD
:10F69200F5CFEEFFE550E150FAE1020EF66EF60EFE
:10F6A200F76E010EF86E0900F5CF18F00900F5CFDC
:10F6B20019F000EE0EF00A0EEE6AE806FDE1000116
:10F6C200F4EFFCF0000E0F01596F000E5A6F000E9E
:10F6D2005B6F000E566F000E656E000E576F120EB6
:10F6E200586F000E5D6F000E5E6F000E5C6F000EB5
:10F6F2005F6F000E666E000E6A6E000E6B6E000E7D
:10F702006C6E000E6D6E000E686E000E696E940EC9
:10F71200606E12000B5008ECFBF002ECFBF00009EB
:10F72200D8B4FBD715ECFBF001C012F002C013F005
:10F732000950125C1350800A0C6E0A50800A0C5851
:10F74200D8A00FD01250075C0850800A0C6E1350DC
:10F75200800A0C58D8A005D00EC010F00FC011F0CE
:10F7620004D018C010F019C011F010501200020E8F
:10F7720014181510D8A40ED089968994899289906C
:10F782008B9E8B9C8B9A8B988A9E8A9C8A9A8A984B
:10F792008B96120014041510D8A40ED08986898481
:10F7A200899289908B9E8B9C8B9A8B988A9E8A9C3D
:10F7B2008A9A8A988B96120014501510D8A41200B7
:10F7C20089968994899289908B8E8B8C8B9A8B984F
:10F7D2008A9E8A9C8A8A8A888B861200000E876E8D
:10F7E200000E866E000E836E000E846E000E856E15
:10F7F200070E8C6E8868F00E896E0F0E8A6E030EED
:10F802008B6E0F0E0F01216FE00E196F030E266F24
:10F81200070E2E6F1169000E256F000E2D6F000E60
:10F82200186F000E106F000E206F000E2C6F000E6E
:10F832000F6F000E176F000E1F6F000E246F000E69
:10F84200F2BE010E016EF29E550E0E01A06FAA0EBF
:10F85200A06FA091AE91AE93AE85AE87AE99550ED4
:10F86200A06FAA0EA06FA08101A002D0F28E12009A
:10F87200F29E12005C035C035C0337036F02950285
:10F8820037036F02C0017501F800F800DF000000C5
:10F8920000005C0395023703950237036F02C00133
:10F8A2002402F800C00137035C035C035C036F02AF
:10F8B200000000003703C001C0012A01000000005F
:10F8C20000006303630363033D0375029A023D0371
:10F8D2007502C6017B01FE00FE00E300000000008D
:10F8E20063039A023D039A023D037502C6012A028E
:10F8F200FE00C6013D036303630363037502000058
:10F9020000003D03C601C6013001000000000000F6
:10F9120088820F011183010E08ECFBF002ECFBF070
:10F922000009D8B4FBD715ECFBF001C016F002C0F9
:10F9320017F017BE13D0175004E1E10E165CD8A0E1
:10F942000DD017BE06D0175009E1FD0E165CD8B0D7
:10F9520005D0000E156E020E146E120017BE13D0E3
:10F96200DB0E165C010E1758D8A00DD017BE06D0BC
:10F972000E0E165C020E1758D8B005D0000E156E8A
:10F98200010E146E120017BE13D0D50E165C020EB5
:10F992001758D8A00DD017BE06D0080E165C030E5D
:10F9A2001758D8B005D0000E156E000E146E120056
:10F9B20084A602D0010E01D0000EFF0A056E054694
:10F9C2000546054684500518F70B0518846E070E88
:10F9D200066E580E056E5A0EE82EFED7052EFCD77F
:10F9E200062EFAD7E5D70EECFBF063ECFBF089ECC0
:10F9F200FCF0B8ECFBF014C001F015C002F0000EF0
:10FA0200046E1A0E036E2BECFBF0AE0E0124D96EBF
:10FA1200000E0220DA6EDECF07F0DDCF08F014C050
:10FA220001F015C002F0000E046E1A0E036E2BECEC
:10FA3200FBF0600E0124D96E000E0220DA6EDECFDA
:10FA420009F0DDCF0AF0190E0B6E8BECFBF00D6E98
:10FA52000D460D460D4684500D18F70B0D18846E99
:10FA620014C001F015C002F0000E046E1A0E036EEF
:10FA72002BECFBF0020E0126000E0222AE0E012438
:10FA8200D96E000E0220DA6EDECF07F0DDCF08F06D
:10FA920014C001F015C002F0000E046E1A0E036EBF
:10FAA2002BECFBF0020E0126000E0222600E012456
:10FAB200D96E000E0220DA6EDECF09F0DDCF0AF039
:10FAC200180E0B6E8BECFBF00D6E0D460D4684503E
:10FAD2000D18FB0B0D18846E14C001F015C002F056
:10FAE200000E046E1A0E036E2BECFBF0040E0126C0
:10FAF200000E0222AE0E0124D96E000E0220DA6E32
:10FB0200DECF07F0DDCF08F014C001F015C002F01F
:10FB1200000E046E1A0E036E2BECFBF0040E01268F
:10FB2200000E0222600E0124D96E000E0220DA6E4F
:10FB3200DECF09F0DDCF0AF0130E0B6E8BECFBF07B
:10FB42000D6E0D4684500D18FD0B0D18846E14C0F9
:10FB520001F015C002F0000E046E1A0E036E2BECBB
:10FB6200FBF0060E0126000E0222AE0E0124D96E13
:10FB7200000E0220DA6EDECF07F0DDCF08F014C0EF
:10FB820001F015C002F0000E046E1A0E036E2BEC8B
:10FB9200FBF0060E0126000E0222600E0124D96E31
:10FBA200000E0220DA6EDECF09F0DDCF0AF0120E6F
:10FBB2000B6E8BECFBF00D6E84500D18FE0B0D18C6
:10FBC200846E14C001F015C002F0000E046E1A0E0D
:10FBD200036E2BECFBF0080E0126000E0222AE0E85
:10FBE2000124D96E000E0220DA6EDECF07F0DDCFDF
:10FBF20008F014C001F015C002F0000E046E1A0ED7
:10FC0200036E2BECFBF0080E0126000E0222600EA2
:10FC12000124D96E000E0220DA6EDECF09F0DDCFAC
:10FC22000AF0110E0B6E8BECFBF00D6E0D320D32E5
:10FC320086500D187F0B0D18866E14C001F015C08A
:10FC420002F0000E046E1A0E036E2BECFBF00A0E8D
:10FC52000126000E0222AE0E0124D96E000E0220F1
:10FC6200DA6EDECF07F0DDCF08F014C001F015C068
:10FC720002F0000E046E1A0E036E2BECFBF00A0E5D
:10FC82000126000E0222600E0124D96E000E02200F
:10FC9200DA6EDECF09F0DDCF0AF0100E0B6E8BECC0
:10FCA200FBF00D6E0D3A0D460D4686500D18BF0B3A
:10FCB2000D18866E14C001F015C002F0000E046E1D
:10FCC2001A0E036E2BECFBF00C0E0126000E022224
:10FCD200AE0E0124D96E000E0220DA6EDECF07F0DE
:10FCE200DDCF08F014C001F015C002F0000E046E62
:10FCF2001A0E036E2BECFBF00C0E0126000E0222F4
:10FD0200600E0124D96E000E0220DA6EDECF09F0F9
:10FD1200DDCF0AF0060E0B6E8BECFBF00D6E0D3A8A
:10FD22000D4686500D18DF0B0D18866E14C001F0BB
:10FD320015C002F0000E046E1A0E036E2BECFBF0DF
:10FD42000E0E0126000E0222AE0E0124D96E000E06
:10FD52000220DA6EDECF07F0DDCF08F014C001F02A
:10FD620015C002F0000E046E1A0E036E2BECFBF0AF
:10FD72000E0E0126000E0222600E0124D96E000E24
:10FD82000220DA6EDECF09F0DDCF0AF0070E0B6E2D
:10FD92008BECFBF00D6E0D3A86500D18EF0B0D1823
:10FDA200866E14C001F015C002F0000E046E1A0E29
:10FDB200036E2BECFBF0100E0126000E0222AE0E9B
:10FDC2000124D96E000E0220DA6EDECF07F0DDCFFD
:10FDD20008F014C001F015C002F0000E046E1A0EF5
:10FDE200036E2BECFBF0100E0126000E0222600EB9
:10FDF2000124D96E000E0220DA6EDECF09F0DDCFCB
:10FE02000AF0220E0B6E8BECFBF00D6E0D320D32F2
:10FE120085500D187F0B0D18856E14C001F015C0AA
:10FE220002F0000E046E1A0E036E2BECFBF0120EA3
:10FE32000126000E0222AE0E0124D96E000E02200F
:10FE4200DA6EDECF07F0DDCF08F014C001F015C086
:10FE520002F0000E046E1A0E036E2BECFBF0120E73
:10FE62000126000E0222600E0124D96E000E02202D
:10FE7200DA6EDECF09F0DDCF0AF0210E0B6E8BECCD
:10FE8200FBF00D6E0D3A0D460D4685500D18BF0B59
:10FE92000D18856E14C001F015C002F0000E046E3C
:10FEA2001A0E036E2BECFBF0140E0126000E02223A
:10FEB200AE0E0124D96E000E0220DA6EDECF07F0FC
:10FEC200DDCF08F014C001F015C002F0000E046E80
:10FED2001A0E036E2BECFBF0140E0126000E02220A
:10FEE200600E0124D96E000E0220DA6EDECF09F018
:10FEF200DDCF0AF0200E0B6E8BECFBF00D6E0D3A8F
:10FF02000D4685500D18DF0B0D18856E14C001F0DB
:10FF120015C002F0000E046E1A0E036E2BECFBF0FD
:10FF2200160E0126000E0222AE0E0124D96E000E1C
:10FF32000220DA6EDECF07F0DDCF08F014C001F048
:10FF420015C002F0000E046E1A0E036E2BECFBF0CD
:10FF5200160E0126000E0222600E0124D96E000E3A
:10FF62000220DA6EDECF09F0DDCF0AF0050E0B6E4D
:10FF72008BECFBF00D6E0D3A85500D18EF0B0D1842
:10FF8200856E14C001F015C002F0000E046E1A0E48
:10FF9200036E2BECFBF0180E0126000E0222AE0EB1
:10FFA2000124D96E000E0220DA6EDECF07F0DDCF1B
:10FFB20008F014C001F015C002F0000E046E1A0E13
:10FFC200036E2BECFBF0180E0126000E0222600ECF
:10FFD2000124D96E000E0220DA6EDECF09F0DDCFE9
:10FFE2000AF0040E0B6E8BECFBF00D6E0D460D4607
:0EFFF2000D4686500D18F70B0D18866EF8D4CC
:020000040020DA
:10000000FF0FFF0FFF0FFF0FFF0FFF0FFF0FFF0F80
:020000040030CA
:0C000000FCFFFFFF9FFFFFFFFFFFFFFF63
:00000001FF
